:020000040001F9
:10B00000D03D0020D5B00100EFB00100F1B001004B
:10B010000000000000000000000000000000000030
:10B02000000000000000000000000000F3B001007C
:10B030000000000000000000F5B00100F7B00100C2
:10B0400085B50100F9B0010049B70100F9B0010070
:10B05000F9B0010000000000C5B3010009B3010010
:10B0600001B7010019B7010031B70100F9B00100C3
:10B07000F9B00100F9B00100F9B00100F9B0010028
:10B08000F9B00100D9B50100F9B00100F9B0010033
:10B0900069B60100F9B0010071B60100F9B0010014
:10B0A000F9B00100F9B0010000000000000000004C
:10B0B0000000000000000000000000000000000090
:10B0C0000348854600F0C2F8004800472900020006
:10B0D000D03D00200321094802680A430260084865
:10B0E00002680A4302600748804707480047FEE7B6
:10B0F000FEE7FEE7FEE7FEE7FEE70000240500406E
:10B10000540500409DB60100C1B0010030B50B46AA
:10B11000014600202022012409E00D46D5409D4231
:10B1200005D31D469540491B2546954040191546B7
:10B13000521E002DF1DC30BD70B5002425460028DC
:10B1400001DA01244042002901DA01254942FFF7D2
:10B15000DDFFAC4200D04042002C00D0494270BD1F
:10B16000004870478456020003460B439B0703D0F8
:10B1700009E008C9121F08C0042AFAD203E00B78BC
:10B18000491C0370401C521EF9D27047D2B201E034
:10B190000270401C491EFBD270470022F6E710B532
:10B1A00013460A4604461946FFF7F0FF204610BD35
:10B1B0000146002000E0401C0A5C002AFBD17047D9
:10B1C00030B504460020034600E05B1C934203D2E6
:10B1D000E05CCD5C401BF8D030BD03460A780270BD
:10B1E000491C401C002AF9D118467047F0B51FB41D
:10B1F0000646002082B005464024019100901BE0E5
:10B20000019922460F46304600F042F8049A059B09
:10B21000801A994110D310461946224600F028F8AA
:10B22000361A8F410197224601200021009F00F02D
:10B230001FF838184D4100902046641E0028DFDCBE
:10B24000019B00982946324607B0F0BD064C012507
:10B25000064E05E02046E36807C82B4398471034A4
:10B26000B442F7D3FFF730FF88560200A856020019
:10B2700010B5202A04DB0146203A9140002010BD81
:10B28000914020239C1A0346E3401943904010BD8F
:10B2900010B5202A04DB0846203AD040002110BD1A
:10B2A0000B46D340D0402024A21A914008431946AF
:10B2B00010BD70B58C180578401C6B075B0F01D171
:10B2C0000378401C2A1106D10278401C03E006785E
:10B2D000401C0E70491C5B1EF9D12B0705D40023BE
:10B2E000521E0DD40B70491CFAE70378401CCB1A90
:10B2F000921C03E01D785B1C0D70491C521EF9D591
:10B30000A142D8D3002070BDFEB5144C0026E068E1
:10B310000125134F002810D000F07AFD00280BD033
:10B320000120B86068460670E0680190217C68469C
:10B330000181A57421688847FEBDFF20013005F01A
:10B3400011F80120B8600748066069460D708068F2
:10B350008880A57468462168EDE700009C300020D5
:10B36000007300400075004010B50F49002005F043
:10B3700071F8002803D00DA2104900F0E7FF104833
:10B380001C22016891431831016005F053F80C4804
:10B3900001210C3805F01CF8002804D0074903A24D
:10B3A000093100F0D3FF10BD91BD01002E2E5C2E9F
:10B3B0002E5C2E2E5C6D61696E2E63000202000011
:10B3C000FC1F0020F0B50024FF268BB001360125BC
:10B3D00027460694304605F059FE002807D0554808
:10B3E0004068284203D0304605F048FE2C43361D05
:10B3F0006D007F1CB6B2042FECD3FF257D352846A7
:10B4000005F044FE002809D0284605F037FE6807FD
:10B41000044306AA0121002005F01CFE464D20072A
:10B4200015D001270026384620420CD04348B200F0
:10B43000111808690969C004C00E8903AA58890F48
:10B44000002A00D090477F00761C042EEBD3002CFE
:10B450006DDA00200890401E63E02819403007781C
:10B46000B906890E009100214156491C49D009A90D
:10B47000009804F07FFF002843D0B809049000989A
:10B4800002F064FC80002F580498002F02D003289B
:10B4900002D00DE0032834D1009808ABC208410760
:10B4A0009446985C490F01228A40104362469854A2
:10B4B000009805210907800040180721090240185B
:10B4C000006806A98003800F0190009804F052FFE5
:10B4D0000028019802D0022802D012E0032810D1DF
:10B4E0000498032808D1019802281ED00221009850
:10B4F00005F05DFD761CF6B2002F02D0049900988D
:10B50000B847641C042CA8D3002E10D06A46012131
:10B51000002005F09FFD06990098884207D006900C
:10B52000089800263446099097E70321DFE70BB01F
:10B53000F0BD000000630040C43000200065004002
:10B540008307FF22DB0E9A408907090E99400028E5
:10B550000BDA0007000F0838830808489B001B1807
:10B56000D86990430843D8617047830804489B001A
:10B570001B181868904308431860704700ED00E0FE
:10B5800000E400E0F8B5FF270137384604F0FAFE82
:10B5900001240F4D0F4E002808D0384604F0FAFE63
:10B5A0000120A8607470002002F02EFCFF270537F0
:10B5B000384604F0E7FE002808D0384604F0EAFEDA
:10B5C0000220A860B470012002F01EFCF8BD00004B
:10B5D00000030040B030002010B50649002008608C
:10B5E00048608860C860034940390860486009F0D5
:10B5F0002FF910BD4011014010B503480078002814
:10B6000001D100F0ABF810BD5435002070B50E46E6
:10B61000182148431349144645181835686900280D
:10B6200004D001280FD0022805D113E0284600F0ED
:10B63000CBF8A04201D2002411E022463146284630
:10B6400000F0FDF80BE0284600F0BEF8A042F4D26E
:10B650000446F2E73146284600F0C1F80446204689
:10B6600070BD00005435002010B509F03BF810BD46
:10B6700010B508484068002808D08047002804D04A
:10B68000FF21054AAC3100F061FE10BD04F07CF8EA
:10B6900010BD00003C2100206855020010B504F0E8
:10B6A00049F9002805D0104810494860C8131049CE
:10B6B000886104F025F9002802D001200D49886036
:10B6C00004F06AF900280ED00B480068012807D062
:10B6D0000A480949086000BF074800680128FBD1F3
:10B6E000C0200549486110BDDFFF07C000050040CC
:10B6F000006C00400006004000EC0640759300001E
:10B7000010B504220249034804F084F810BD00007B
:10B71000283100200080004010B50422024903486F
:10B7200004F078F810BD0000343100200090004093
:10B7300010B504220249034804F06CF810BD000063
:10B740004031002000A0004010B50249024809F035
:10B75000A5FA10BD0C3100200020004010B5124C9D
:10B7600002202061606111A0A0611348E061012006
:10B77000400220620020A06260620CA1A164214608
:10B78000E0621039E16410212165A0656065E06523
:10B790000AA1E01DFFF721FD09A12046FFF71DFDCD
:10B7A0002020A07110BD0000543500205465726D3A
:10B7B000696E616C00000000443300205254540054
:10B7C00053454747455200000269C1688A4203D881
:10B7D0008068401A801800E0501A401E7047F7B584
:10B7E000064682B000200090F46817463069A042F7
:10B7F00001D9051B02E0B168201A0D1AB0686D1E50
:10B80000001BA84200D80546BD4200D33D467068E3
:10B810002A4600190399FFF7A7FC00987F1B4019DF
:10B8200000900398641940190390B068A04200D1B9
:10B830000024F460002FD9D1009805B0F0BDF7B511
:10B84000C668174604468068851B6068BD4206D9F5
:10B8500080190199FFF788FCF019E060FEBD2A46C7
:10B8600080190199FFF780FC01987E1B411932462F
:10B870006068FFF779FCE660FEBD00000FB41CB500
:10B880000A46521E0192009007A9064B6A46069886
:10B8900000F034F8009A002111701CBC08BC04B000
:10B8A0001847000079BD010030B47446641E257845
:10B8B000641CAB4200D21D46635D5B00E31830BCE4
:10B8C000184702E008C8121F08C1002AFAD17047C1
:10B8D0007047002001E001C1121F002AFBD1704710
:10B8E000202804DA012181400348014201D00120CF
:10B8F0007047002070470000FC06FFBCFFB591B008
:10B900000F4605460026F9E0252876D100246D1C57
:10B91000FB4A0094012102942B780846203B984072
:10B920000346134202D004436D1CF5E728782A2809
:10B930000ED0022128780246303A092A15D8009AFA
:10B940000A235A43303A80180C436D1C0090F1E7EB
:10B9500001CF0090002805DA01204003044300983D
:10B9600040420090022004436D1C28782E2815D1F7
:10B97000042004436D1C28782A280AD101CF6D1CAD
:10B9800002900BE002990A225143303940186D1C95
:10B9900002902878014630390929F3D928786C2893
:10B9A00010D006DC4C281AD068280ED06A2817D18F
:10B9B00004E0742813D07A2812D110E00120400549
:10B9C00004430CE00121090501E0032109050C43B2
:10B9D0006978814203D101206D1C000524186D1C7B
:10B9E000287803906E281FD00DDC632833D005DC47
:10B9F00000287DD0582812D1BEE010E0642801D084
:10BA000069280CD181E073282FD004DC6F2870D016
:10BA1000702804D1B2E075286CD078286BD0149AC5
:10BA200013999047761C68E06002400F022807D007
:10BA300003280AD0042838680AD03F1D06605CE05D
:10BA400001CFF1170660416057E001CF068054E056
:10BA50003F1D067051E0387869460874002048742C
:10BA600004A83F1D0390012003E001CF03900020B4
:10BA7000C04361070FD5002101E00199491C029ADA
:10BA80000191914213DA8142F7DB019A0399895CB3
:10BA90000029F2D10BE0002101E00199491C01913C
:10BAA0008142FADB019A0399895C0029F5D1019959
:10BAB0000098139A401A00902146149B00F046F912
:10BAC00001998019461807E0039803990078491CEA
:10BAD0000391149A139990470198401E0190401CBD
:10BAE000F2D12146149B139A009800F01FF903E04D
:10BAF00008E04CE03EE03FE086196D1C2878002805
:10BB000000D001E7304615B0F0BD0A2000210490B6
:10BB100005916002410F022905D001CFC21794465A
:10BB2000032907D009E0FF1DFF08FF007968386886
:10BB3000083706E000B2C2179446042902D140B289
:10BB4000C1178C4600226146944506DA0A46002158
:10BB5000404291418C462D2102E0210504D52B2144
:10BB60006A461176012103E0E10701D02021F7E7C1
:10BB7000019150E00A200BE0102009E01020049011
:10BB800000210420044308200591029003E00820CE
:10BB90000021059104906002410F022905D001CFD8
:10BBA00000229446032908D008E0FF1DFF08FF008B
:10BBB0007968386808378C4603E080B2042900D1E0
:10BBC000C0B200210191210725D5039970292AD0FF
:10BBD000049A1021059B4A401A4309D1614601434A
:10BBE00006D030216A4611760399517602210191DF
:10BBF000049A0821059B4A401A430CD1614601432F
:10BC000001D1610707D530216A46117601210191E2
:10BC10000299491E02910399582909D039A103912B
:10BC20000FA90F9112E040216A4611760121DEE74B
:10BC300039A1F4E76146059B049AFFF7D7FA039B05
:10BC40008C469B5C0F9A521E0F9213706146014303
:10BC5000F0D10F9807A9081A20300390600704D587
:10BC6000012000048443029801E00120029003991E
:10BC7000884201DD401A00E000204118029001983E
:10BC800009180098401A0090E00306D42146149B3E
:10BC9000139A009800F05AF88619002008E00499D9
:10BCA00006A8405C149A139990470498761C401C8F
:10BCB000019904908842F2DBE0030CD52146149BE5
:10BCC000139A009800F042F8861904E0149A302084
:10BCD00013999047761C0299481E02900029F5DCC2
:10BCE00008E00F980F990078491C0F91149A139946
:10BCF0009047761C0399481E03900029F1DCF0E67A
:10BD00000928010030313233343536373839616231
:10BD100063646566000000003031323334353637F5
:10BD2000383941424344454600000000F8B5044616
:10BD300000251E461746880404D405E03946202015
:10BD4000B0476D1C641EF9D52846F8BDFFB5044602
:10BD5000002581B01E46C80301D5302700E020270A
:10BD6000880404D505E038460399B0476D1C641E6D
:10BD7000F9D5284605B0F0BD4A68002A06D00A6801
:10BD8000531C0B6010704868401E486070470000EC
:10BD900010B5017800292CD14068445E012104F0DF
:10BDA00017FB002804D0FF2112A2BD3100F0CEFA0B
:10BDB0004B2000014443E017800D00198012410020
:10BDC0004018FF300F3080B201F05CF801460D489A
:10BDD00001F042FA00280CD008280AD00A4988420B
:10BDE00007D00A49884204D0FF2102A2CE3100F0D8
:10BDF000ADFA10BD2E2E5C2E2E5C2E2E5C6D616970
:10BE00006E2E630060270020043000000134000023
:10BE100070B5FF20013004F0A5FA12490020086037
:10BE20008B681148427CC4685500521C6353D2B2DF
:10BE30004274037C9A4213D2836800225B68002B11
:10BE40000BD0012283601868486001200860002A36
:10BE500001D006490860002070BD43688360F2E7A6
:10BE6000012070BD007500409C3000200070004033
:10BE700010B500280CD000290AD002780B789A421D
:10BE800006D10622491C401CFFF79AF9002801D070
:10BE9000002010BD012010BDF7B584B00646002576
:10BEA0001788158020300290407B1446002806D069
:10BEB0003A462146059801F085FC050009D1B07885
:10BEC000002823D0059886462088001DB84202D954
:10BED0000C2007B0F0BD684679DF0028F9D1218831
:10BEE00003207246505420881921401C80B22080C3
:10BEF000115420887146401C80B220804118684649
:10BF0000008808F05DFF218840182080F078002824
:10BF100017D0218803230A46F356C91C0598B94255
:10BF2000D6D80221815421880122491C89B221805E
:10BF300042542188491C89B2218043542088401CE6
:10BF400020807068002817D021880023C3560A4635
:10BF5000C91C0598B942BBD80221815421880A2204
:10BF6000491C89B2218042542188491C89B2218010
:10BF700043542088401C2080308900280AD0009437
:10BF800030460197062202210830059B08F072FF17
:10BF900005009ED1308A00280AD0009430460197CF
:10BFA000072203211030059B08F064FF050090D1A3
:10BFB000308B00280AD000943046019715221421B6
:10BFC0001830059B08F056FF050082D1306A002822
:10BFD00006D03B462246059901F07EFF0500D8D1E8
:10BFE000706A002806D03B462246059904F0E4F822
:10BFF0000500CED10298007B002807D03B462246A0
:10C000003046059907F022FF0500C2D1307800289C
:10C0100007D03B4622463046059904F001F9050059
:10C02000B7D1284655E70000174A0021535C002B82
:10C0300001D0012203E0491C0629F7D3002213494D
:10C04000012806D002280BD0032810D0042818D1CC
:10C0500012E04878002803D0002A01D00120704760
:10C060008878002803D0002A01D002207047C878C1
:10C07000002801D0032070470879002801D004204F
:10C08000704700207047000031200020B4270020B6
:10C0900010B5A8B03C2101A8FFF77FF8022168463F
:10C0A0000171012484710521C1710421818212482A
:10C0B00006903C2110A8FFF770F810A804820E48E3
:10C0C0002021123815901FA8FFF767F818A8C47729
:10C0D00028202390B420249000200090074B1FAA12
:10C0E00010A901A800F048FF002803D004A20849C5
:10C0F00000F02CF928B010BD04200020DD13020050
:10C100002E2E5C2E2E5C2E2E5C6D61696E2E6300D1
:10C110005204000010B5032001F01AF8002804D0E2
:10C120005F21024A090100F011F910BD68530200B5
:10C13000F0B50F468DB0002116466D460F24621AE9
:10C14000825C6A54491C1029F9D328460D2110300D
:10C15000FFF723F80020221A395C5219401C117491
:10C160000328F8D368464DDF0020211A49192031F1
:10C1700009783154401C0328F7D30DB0F0BD0000FE
:10C1800070B590B005461C216846FFF706F8694671
:10C190000878042108436946087000240194039438
:10C1A00004940594012608A906948E7013486946E4
:10C1B0000884601C00070794000F0C772030487734
:10C1C000887FF9210840801CE7210840B043694678
:10C1D000887714210AA8FEF7E0FF08A90C7107A8C8
:10C1E0000A910B9069460E864C868E8609A80E90A1
:10C1F000A888AB1D0AAAA2DF10B070BD062A0000F5
:10C20000F0B58FB00D4606461C216846FEF7C5FF07
:10C21000684601780A2001436846017000240194B1
:10C22000039404940594012708A80694877015497F
:10C23000684601840794697A0177A97A4177807FFB
:10C24000F9210840801CE721084041084900684660
:10C25000817714210AA8FEF7A0FF297A08A80171A6
:10C260000A9007A80B90684607864486878609A827
:10C270000E90334630890A330AAA6946A2DF0FB00E
:10C28000F0BD0000062A000010B50446024609A1D0
:10C29000032005F017F8002C08D0012C08D0022C40
:10C2A00003D10BA1032005F007F810BD0EA1F9E79B
:10C2B00013A1F7E74150503A494E464F3A616C6539
:10C2C00072745F6C6576656C203A2025750D0A00E6
:10C2D0004150503A494E464F3A484947485F414CD1
:10C2E0004552542E0D0A00004150503A494E464FD7
:10C2F0003A4E6F20416C6572742E0D0A00000000EA
:10C300004150503A494E464F3A4D494C445F414C9A
:10C310004552542E0D0A000070B50D4606461446CF
:10C3200004A1012004F0C8FF22462946304600F04F
:10C330001BF870BD4150505F4552524F523A455222
:10C34000524F523A466174616C0D0A000EB56B464D
:10C350001980019202906A4600210248FFF7DCFF33
:10C360000EBD000001400000114B186059609A603A
:10C370001049401807D001280FD1DA60D86800882A
:10C380009861D86807E01A6118698068586118696F
:10C390000088986118694068D8611868586898687A
:10C3A000D868186958699869D86972B6FEE70000BC
:10C3B0004C310020FFBFFFFF10B58268C3689A1A96
:10C3C00003D002F08DFA002010BD052010BD002919
:10C3D00006D0002A02D0531E134203D00920704712
:10C3E0000E2070470160838000218160C160084693
:10C3F000704710B58268C3689A1A83889A4203D836
:10C4000002F078FA002010BD042010BD70B505467A
:10C4100040680B4E0179715C0124FF290DD0FE2983
:10C420000CD004F021FB01466868064B00798200BD
:10C430009A58914202D1FF2131540024204670BD08
:10C440002E2100201033002070B5044600680D46F0
:10C45000008B642180B25043FEF758FE82B2294619
:10C46000204600F001F870BDF8B50D4604461746A9
:10C4700000680C212E4623224E43125C3118022AFA
:10C4800001D00820F8BD4968B94206D1C169002928
:10C490003ED06068007988473AE02046FFF7B6FF53
:10C4A000002801D01120F8BD61681A4A0979FE20E0
:10C4B000505423683A469E19776820462946002F33
:10C4C00002D09E69B7420AD3002A02D09B699342E8
:10C4D00002D806F0C5FD0BE006F0FEFD08E0002ADC
:10C4E00001D0964202D806F081FE01E006F004FF7A
:10C4F0002068C06900280BD06168064A09790220CB
:10C500004900D21C891848550221606804F0E2FAFB
:10C510000020F8BD2E210020FFB581B00546076838
:10C52000029E0C2046432320C05DF419002802D04F
:10C53000082005B0F0BD002060600498A0722B4870
:10C5400000680090304629680A30085C002808D04E
:10C55000002069464870039804F04CF8002814D174
:10C5600001E00120F5E70398B851049800280398EA
:10C5700002D004F03DFD01E004F05AFD0026A019B0
:10C58000083004F0EDF8002801D00420D1E7761C33
:10C59000F6B2022EF3D3207A04F036F9607A04F072
:10C5A00033F9206804F070F806466868029904F0D0
:10C5B00081FA0146207A324604F006F9206804F038
:10C5C00063F806460221686804F074FA0146607A4E
:10C5D000324604F0F9F80120E0726968044A0979EA
:10C5E000002049008A1802995054A2E75C550200C5
:10C5F00031210020F8B506460768406804F07CFA4F
:10C600000221706804F05DFA0024381920300078A7
:10C6100004F0FAF8641CE4B2022CF6D3002420469D
:10C620000C214843C519E97A002910D031680A3035
:10C63000085C0028286817D004F0DAFC286804F0A9
:10C640002DF8287A04F0E0F8687A04F0DDF8641C2C
:10C65000E4B2022CE3D370680021006805F02AFBE5
:10C6600001202037F870F8BD04F0E2FCE6E7000096
:10C67000F8B50768054600246A68204612790C213F
:10C6800048435300174AC61900219A181155F17AE8
:10C6900000290DD029680A30085C002820D000212C
:10C6A000306804F023F8306804F008F80020706067
:10C6B000641C022CE0D369680A4AFF200979D21E63
:10C6C000505468680121006805F0F4FA686804F0C5
:10C6D000D8F9686804F01CFA02202037F870F8BD19
:10C6E0000121DDE731210020F7B588B00E000546B5
:10C6F00009D02C68204620300690C078002804D04D
:10C7000008200BB0F0BD0B20FBE704F0A1F90028D6
:10C7100003D0852801D00420F3E703F063FF00284D
:10C7200005D103F031FF002801D00320E9E7069886
:10C73000FF2101700698417006988170002007461D
:10C740000C2141430B19DF72FF221A725A72002228
:10C75000D243401CC0B262500228F1D3204622309E
:10C7600004F002F9002806D10027E019203003F078
:10C77000F7FF002803D0284606F084FBCBE77F1C98
:10C78000FFB2022FF1D30027B8003258501C12D04C
:10C79000F019037A39462846FFF7BEFE04900028B8
:10C7A00004D0284606F06EFB0498AAE7002239461A
:10C7B0002846FFF759FE7F1CFFB2022FE4D300206A
:10C7C0000922244B316901E04908401C994201D9F2
:10C7D0009042F9D3204A51689268029201916946C9
:10C7E000087168681D4A0079029001A9686804F020
:10C7F000B5F9070004D0284606F044FB384680E728
:10C8000068680522006812028018316900690E010B
:10C81000C640A661686804F034F901270097042334
:10C8200032460221686804F081F90221686804F048
:10C8300048F90A98E061686809490079094A800066
:10C840000D506968FF20097950540698C770002080
:10C8500057E70000FF0F00005C550200252F020083
:10C860001C3300202E21002070B5046805462034BA
:10C87000E078022802D0002809D002E02846FFF71D
:10C88000B9FE284606F0FEFA0020E07070BD0820D0
:10C8900070BD0000094B5B68002B07D0002A07D051
:10C8A000002805D00068037C002B03D008207047C7
:10C8B000072070474174426100207047E820002043
:10C8C000FFB507469007002581B01E461446002894
:10C8D00025D1002C23D006F0A5FF3046114EF06084
:10C8E0003046103005704570029981704460756063
:10C8F000357001240C487570240504600321142050
:10C90000FEF71EFE09480460094CA76003211120B0
:10C91000FEF716FE6068B060002005B0F0BD07208D
:10C92000FBE70000D820002080E200E000E100E00A
:10C9300000150140FEB51F4B5B68002B30D000286E
:10C940002ED0052901D20720FEBD4369002B27D038
:10C95000437C012B26D0002702910446002569461E
:10C9600016460D70684600F0F1F801A808F06CFA60
:10C97000002819D0012101700F4944604968816085
:10C98000029907614661C16068460A4900794870AA
:10C990006846007800F0F8F807F0E4FE2846FEBD8F
:10C9A0000820FEBD0F46D7E768460425007800F052
:10C9B000EBF8F3E7E82000200015014010B5084926
:10C9C000496800290AD0002808D04169002905D00B
:10C9D00000210174022107F017FF10BD082010BDCF
:10C9E000E820002070B50C4D0146AE780B48FFF7EB
:10C9F000E3FC0446002E0CD00020A870691C012224
:10CA0000C81D04F065F9002803D005A2D521FFF761
:10CA10009DFC204670BD0000F82000206C310020F5
:10CA20002E2E5C2E2E5C2E2E5C2E2E5C2E2E5C2E40
:10CA30002E5C636F6D706F6E656E74735C6C696293
:10CA40007261726965735C756172745C6170705F4C
:10CA5000756172745F6669666F2E6300F0B5274E6C
:10CA600089B01F460D00044672601CD0A888296852
:10CA700082B22348FFF7ABFC002815D1A889A9682A
:10CA800082B21F481030FFF7A2FC00280CD12022F0
:10CA90001C496846FEF768FB60690690207C002808
:10CAA00004D0012103E0072009B0F0BD0021684651
:10CAB00001750777607C002800D00E206946487514
:10CAC000E0680290A0680390206801906068009080
:10CAD0000A480D4A083004F0BBF80028E4D1B070D1
:10CAE0002068401CE0D00548083004F01FF90349D5
:10CAF0000122491CC81D04F0EBF8D5E7F8200020FE
:10CB00006C31002028550200F54B020010B501469B
:10CB10000C48FFF76EFC040012D10B4804F0D0F96A
:10CB200000280DD1084907480839FFF745FC0028BF
:10CB300006D1054901220839034804F061F9044689
:10CB4000204610BD7C3100200021002030B5EFF3DD
:10CB5000108172B6094A54680123002C04D0037076
:10CB6000002900D162B630BD5360054B1D68054CED
:10CB7000254015601C6000220270F1E70C210020A6
:10CB800080E100E0FC06FFBC08494A68002A0CD09E
:10CB900000280AD1EFF3108072B60A68044B1A60BD
:10CBA00000224A60002800D162B670470C210020A4
:10CBB00000E100E070B5054608680C46411C04D051
:10CBC00004F02EFA206804F0E8F96068411C02D0F5
:10CBD000002104F0CFF92968052212028918A06902
:10CBE0004862607D227D29681043152292018918D0
:10CBF000C86262682168286804F0ACFB207D0128C7
:10CC000012D1A068411C02D0002104F0B3F9E06801
:10CC1000411C04D004F004FAE06804F0BEF9A268F4
:10CC2000E168286804F088FB70BD800B01D000200B
:10CC30007047012070470000F0B504468BB00088B3
:10CC400000F0C2FC0590208802F00CFD0646A068AA
:10CC50000090657A684605741E4F20880022397856
:10CC600000F002FD0598002831D06079400710D50A
:10CC70000721304605F0FCF9002813D00822694648
:10CC80000A7422884A828E82069004A801F02AFC47
:10CC900008E02088B97800F0D5FC002802D03046A2
:10CCA00002F0CAFC0321684601712188C1806079C5
:10CCB0004007C10F68460172A0794007C10F68465E
:10CCC000417201788172C57201A801F00BFC0BB0B2
:10CCD000F0BD0000B420002000B585B014216846E6
:10CCE000FEF75BFA144800900121684601710020AC
:10CCF00002906421684601730120014610316846A4
:10CD000041730120014610316846817300200146BD
:10CD10006846C173012001461031684601746946B6
:10CD2000064800F0D3FA002803D005A20849FFF70F
:10CD30000DFB05B000BD0000251402006027002097
:10CD40002E2E5C2E2E5C2E2E5C6D61696E2E630085
:10CD50001B050000F0B50546007D002493B00E468B
:10CD600000280DD00120014610316846039401735C
:10CD7000717B4173817BF9200140891C6846817376
:10CD80001C2104A8FEF709FA6946087C0221084321
:10CD9000694608742A7DEF21002A02D01022104330
:10CDA00000E008406A461074059407940894287DB2
:10CDB000002800D003A8099001270A941046977113
:10CDC0002E4A82800094B27B0270F27B427080789F
:10CDD000F9221040801CE7221040410849006846B3
:10CDE0008170317B017214210BA8FEF7D6F901A8DE
:10CDF0000B9068460C908786C486078702A80F9020
:10CE0000A888AB1D0BAA04A9A2DF002833D1B06803
:10CE100000282ED068468771194981800094317CA2
:10CE2000017000200146684641708078F921084071
:10CE3000801CE7210840410849006846817011A81C
:10CE4000B16800F0C6FE064614210BA8FEF7A5F94E
:10CE500001A80B9068460C908686C486068711A8A8
:10CE60000F902A46E8880E320BA9A3DF002802D1D2
:10CE700000E0EC81002013B0F0BD0000192A000092
:10CE8000082900001C4910B5884201D3642010BD58
:10CE9000194A643A904207D9081A3A214843642152
:10CEA000FEF74AF9642109E01449884209D9101AA9
:10CEB00018214843A021FEF73FF92A21081AC0B2E1
:10CEC00010BD0F4A904208D9081A0C214843FF218F
:10CED0002D31FEF731F91221F0E70A49884208D9CD
:10CEE000101A06214843FF215531FEF725F9062186
:10CEF000E4E7002010BD0000B80B0000B40A0000F9
:10CF0000880900003408000010B503F0C3FA10BD12
:10CF1000F0B50C4693B01F216A4611800726002702
:10CF20009180002809D0C17849070DD502A9FEF7E4
:10CF3000B3FF002809D102AD01E000251780002CC5
:10CF40000ED0E078002802D0304613B0F0BD01AA20
:10CF50000AA92046FEF7A0FF0028F6D10AAA02E09F
:10CF600068460022878068468088C3B26846008889
:10CF7000C1B2284672DFE8E7FFB581B01E460A9FBE
:10CF80001346040044D0002B42D04D4D01202870A0
:10CF90000020E870202219464A48FEF7E5F80020F4
:10CFA0006F61C0432E612881284607211830FEF7A3
:10CFB000F4F844483C212030FEF7EFF8414821784E
:10CFC00020300170A1788170E178C1706178417082
:10CFD0003C4A656923695563114613632031E36850
:10CFE000A268CB608A603749E369A269CB638A6330
:10CFF000616A002917D002463C3203464833426238
:10D000009360616A0D88158089889180002107E00E
:10D010000E2005B0F0BD656AAD686D5C5D54491CBD
:10D0200095888D42F7D8A16A00291AD0254B9433F0
:10D030001A460C3A93608262A16A89889180A16A3B
:10D0400009881180002104E0A56AAD686D5C5D541B
:10D05000491C95888D42F7D82C210A5D1949403129
:10D060000A73216A002908D015490A310162226A2F
:10D0700052884A80226A12880A806168002900D09A
:10D080004160104B0E490020B33320310A68C400C0
:10D09000241A8500E418401C54510828F7DB094A7B
:10D0A00000208968EB32030184009B18401C0B515F
:10D0B0000828F8DB034802992030FFF729FFA8E78A
:10D0C00018200020B427002010B50188134C102927
:10D0D00015D0112919D01B2910D1007A00280DD1A3
:10D0E000E0780521401CFEF711F8084600F030F802
:10D0F000002803D06169002900D0884710BD817DD8
:10D100000129FBD18088208110BD002161718088B8
:10D1100021898842F8D10120E8E70000182000208A
:10D1200010B5022801D003280ED1084C60780028E1
:10D130000AD000206070E07800F00AF8002803D0E0
:10D140006169002900D0884710BD00001820002028
:10D15000F1B53F4C88B0207800280AD00898E070DC
:10D1600006A801F0CBFC06980125002804D06570C4
:10D170006AE0082009B0F0BD3548002707211830C3
:10D18000FEF70BF8334E7078002802D0E0780128C3
:10D1900007D0B07800280CD0E078012801D0022810
:10D1A00007D12169002903D025710820884700E0B4
:10D1B00027710898FEF738FFE0702169002909D02F
:10D1C000032801D0042805D13078002802D06079E6
:10D1D000002811D0A77118216846FDF7DEFF6846C8
:10D1E00007700772E1781A480B001830FEF75CFBF5
:10D1F000052E080F191D2000A57107208847EAE7B2
:10D20000A5700190684605704782078213E00221ED
:10D21000A170019068460570B1894182318901820F
:10D2200009E0684606F0DAFE02E0684606F002FF12
:10D23000E078002803D0684673DF00289AD121697E
:10D24000002901D0A0788847002093E7A770F6E76F
:10D2500018200020B427002073B586B004002FD01A
:10D260006A46217C127F0020914227D000250126AA
:10D27000684600950680458007A80190E188608A8D
:10D280006A46A4DF002819D16846007F2074608AAE
:10D290000D49884216D0207D002813D002950395B1
:10D2A00004950595E18868460181867241888181EF
:10D2B000049001980590608A02A9A6DF08B070BDAD
:10D2C0000E20FBE70820F9E7FFFF000038B50D4608
:10D2D00004001AD0002D18D0286820600020C04318
:10D2E000608228792075FF202074012168468170B2
:10D2F00007490180221D69460120A0DF002803D1D3
:10D3000029462046FFF726FD38BD0E2038BD000017
:10D310000F18000038B5002824D0002922D00A8830
:10D32000102A1AD0112A1AD0502A1BD10446007D87
:10D33000002817D0891D08886289904212D1488937
:10D3400002280FD1206800280CD008460C3000F0CD
:10D3500039FC002807D0002006E0898801E0002180
:10D36000C943418238BD01206946087022682046C1
:10D37000904738BD70B5054601461C220E48FDF7A2
:10D38000F3FE0E4C002626702968002906D00822DC
:10D39000201DFDF7E9FE201D7ADF02E00748001D91
:10D3A0007BDF002807D1401E60806670044A0021A0
:10D3B0000448FFF76FFA70BD802900204820002044
:10D3C000CD4D0200C8530200F8B5214C0146028839
:10D3D00000261E48E589102A13D01E4F112A1FD09F
:10D3E000122A2BD0502A1AD1881DC988A94216D1D9
:10D3F0004189022913D10C3000F0E4FB00280CD144
:10D4000012E08A88044642801048082218310C3005
:10D41000FDF7AAFE6670002D01D100F0B1FDF8BD48
:10D420000021C943418046703868FFF7C7FA0028D9
:10D43000F5D0A1690029F2D08847F8BD0348082239
:10D4400008310C30FDF790FEE7E70000482000208F
:10D4500080290020C853020010B503490A7D091D28
:10D4600006F023FB10BD00009C290020034B10B5E3
:10D470000246D97D181D06F002FB10BD9C29002034
:10D48000034B10B50246197E181D06F0F8FA10BDC0
:10D490009C290020F0B5044602883A488FB0014626
:10D4A00015310391102A09D0112A51D01A2A4BD1D3
:10D4B000217A090901294FD901234EE0027D417DDE
:10D4C00005468A43011D09A806F0EFFA142209A9AE
:10D4D00004A8FDF749FE00262A483746143001907B
:10D4E0000AE0710004A8081883881D220097281DEF
:10D4F000019906F075FA761C0498B042F1D8287D9F
:10D50000A688C043C0B206F09DFA1F49884216D0D3
:10D5100040004019868001233246281D039906F0F9
:10D52000E7FA01233246281D019906F0E1FAA07DB1
:10D5300002280BD000231349A28816311EE013A243
:10D54000E1210420FEF702FF0FB0F0BD0123F2E756
:10D550000023A288001D12E000230A490546A28884
:10D560001731001D06F0C4FA207A0009022801D9FB
:10D57000012300E000230349A2881831281D06F08A
:10D58000B7FAE1E79C290020FFFF00002E2E5C2E59
:10D590002E5C2E2E5C2E2E5C2E2E5C2E2E5C636F4F
:10D5A0006D706F6E656E74735C626C655C636F6DDD
:10D5B0006D6F6E5C626C655F636F6E6E5F737461DE
:10D5C00074652E630000000070B50B4E0546002404
:10D5D000317D2A46301D06F052FA002809D0B17D6F
:10D5E0002A46301D06F04BFA002801D0022400E044
:10D5F0000124204670BD00009C29002010B50024A5
:10D60000204607F015FC002805D0641CE4B2182C55
:10D61000F6D3182010BD044801220168A24011432E
:10D620000160204610BD00009C29002010B5044672
:10D6300007F0FEFB002802D001480019407E10BD13
:10D640009C29002070B505460C46084607F0F0FB03
:10D65000002806D003482A460119497E001D06F01D
:10D660000EFA70BD9C29002070B5064615460C4682
:10D67000084607F0DDFB002807D004482B460119B7
:10D6800019313246001D06F033FA70BD9C29002086
:10D6900070B500280AD00F4D2978002908D004461B
:10D6A00006F09AF8002805D0002070BD0E2070BD4D
:10D6B000082070BDE868062809D2074A8100891849
:10D6C00022880A8062884A80401CE860ECE70420D7
:10D6D00070BD00005C200020D0290020002808D068
:10D6E000002205490123CA600B708A604860104619
:10D6F00070470E20704700005C20002010B5002805
:10D7000011D000290FD0114A1278002A0BD00A88B4
:10D71000112A11D0302A07D0322A09D0332A02D157
:10D72000091D03F0F7FF10BD091D04F0D5F810BD69
:10D73000091D03F051FF10BD8A8809218901401895
:10D74000C18B8A42F7D10021C17610BD5C20002038
:10D7500070B50E4600280ED0174A117800290CD05B
:10D76000D168002909D0092189014418E17E0029E6
:10D7700005D0112070BD0E2070BD082070BDE6835D
:10D780000021916021770546A1760C4861760188D9
:10D790002980408868808AB233460949032003F013
:10D7A00098FD2A460121304690DF0028E6D101206D
:10D7B000E076002070BD00005C200020D029002011
:10D7C000CC5302007CB5054608880C4609309042CF
:10D7D00001D90C207CBD684671DF0028FAD1218870
:10D7E0000820685420881B21401C80B220802954C6
:10D7F000208800A9401C80B22080401906220131F7
:10D80000FDF7B2FC20886946801D80B2208009782F
:10D81000002900D0012129542088401C20800020AC
:10D820007CBD000010B50446FFF734FE204605F02D
:10D8300077F921461448FFF761FF2046FFF7C4FD42
:10D840002146124800F0C2F810482146103000F07E
:10D8500003F90E4821462430FFF75CFD0B482146B2
:10D860003C3000F044F8094821460C3800F02CFA0E
:10D87000054821461C3800F04DF9204603F0FCFD18
:10D880002046FFF721FC10BDD02400203C270020BB
:10D89000002803D00181C282002070470E2070470B
:10D8A00010B5002817D00A68002A14D0002912D019
:10D8B0000260496841600021C94301810021C182A1
:10D8C00001210174054AC2810173054941810A3071
:10D8D000FFF7DEFE10BD0E2010BD0000062A00007E
:10D8E00002180000C08A002800D0012070471FB530
:10D8F0000988112910D104460020C0432081204608
:10D90000FFF7F0FF002807D0022069460870226860
:10D91000204690470020E0821FBD0000F3B585B08F
:10D9200000270C460097019702970121684603974C
:10D93000017061884180264620780E3600281BD170
:10D94000A0881349884217D1A079012814D1002555
:10D950000FE0284612214843325A0E49511807D188
:10D9600081190879400703D50A2201A8FDF7FCFBBD
:10D970006D1C207AA842ECD868468089002801D026
:10D9800068460770059869460268904707B0F0BD81
:10D9900002180000FAD5FFFF38B5044608680028D1
:10D9A0000FD0206001216846817007490180221D47
:10D9B00069460120A0DF002802D12046FEF7E0FBE7
:10D9C00038BD072038BD00000218000008B50A88DD
:10D9D000102A12D0502A0FD1891D0A88C3889A4272
:10D9E0000AD14A89012A07D100236A461370097BAC
:10D9F000517002686946904708BD8988C18108BD99
:10DA00001CB5002201246B4600921C805A800191B3
:10DA10004189408A6A46A5DF1CBD000038B504462E
:10DA200008680D46002813D02060686860600121F6
:10DA30006846817007490180224608326946012004
:10DA4000A0DF002803D129462046FEF7D9FB38BDC8
:10DA5000072038BD0318000038B50B880022102BB2
:10DA60000BD0112B0CD0192B1AD1097A002917D100
:10DA700069460A704A70026816E089884182F7E7B1
:10DA80000446087A08280BD168460270411C2046DB
:10DA9000FFF7B6FF002804D06168002900D088474E
:10DAA00038BD226869462046904738BD30B5184BCE
:10DAB0000D4604000FCB85B003936B4607C324D0FB
:10DAC000002D22D00020C043A0822868A061002041
:10DAD000A0752146684663DF002814D12178684686
:10DAE000817401210182A21C04A90120A0DF002869
:10DAF00009D12946204605F0CAFE002803D129464F
:10DB0000204606F084FF05B030BD0E20FBE7000084
:10DB10001055020010B500281BD0002919D00A8822
:10DB2000102A17D0112A17D0502A12D104468A1D64
:10DB3000C888238A1231984202D15389022B0FD010
:10DB4000A388984205D1A369002B02D052892046B0
:10DB5000984710BD898801E00021C943818210BD2A
:10DB6000084600F02FF8002800D00120A07510BD55
:10DB700007B584B000280DD0828A114B9A420BD091
:10DB8000827D002A08D06A46128B142A06D9072003
:10DB900007B000BD0E20FBE70820F9E70022009245
:10DBA00001920292039282896B461A80039106A920
:10DBB000029101219970808A6946A6DFE8E700009A
:10DBC000FFFF00004178027808021043C007C00F31
:10DBD00070470A780270497841700220704700004F
:10DBE00000B587B0204A21A1032003F06BFB1E483B
:10DBF00000236C38406905904822204905A806F0AA
:10DC0000EFFC002803D01EA22149FEF79FFB6A46C5
:10DC10000121002006F0CCFC002804D01C4918A2E9
:10DC2000891DFEF793FB684606F072FC002804D0BD
:10DC3000174913A21031FEF789FB164806F05EFC67
:10DC4000002804D012490EA21431FEF77FFB1248BF
:10DC500006F0F8FC002804D00D4909A21831FEF79F
:10DC600075FB07B000BD0000005302004150503A60
:10DC7000494E464F3A25730D0A0000006C240020DF
:10DC80002E2E5C2E2E5C2E2E5C6D61696E2E630036
:10DC90004303000025D801005946020038B5044668
:10DCA0000D46012168468170064901802246694679
:10DCB0000120A0DF002803D12946204606F0F2FE0D
:10DCC00038BD0000041800000A88102A01D1898894
:10DCD00041817047002901DA00207047026851181D
:10DCE00001600120704700000022D24383000449F4
:10DCF0000428CA5002D30818203002777047000069
:10DD0000C4300020F0B50025ED43002A02D00023E6
:10DD1000042601E0042308260B4C04E09F00E75989
:10DD20007F1C04D05B1CB342F8D32846F0BD2618F4
:10DD30005DB2203635709E00A151002AF5D1E11860
:10DD400020310877F1E70000C430002002490918AB
:10DD50002020085670470000C430002038B50C461B
:10DD60000921890141188A7E64235A434B7E121887
:10DD7000002B07D05B1EDBB2122043439B18588A4E
:10DD8000401C00E0D0886946088010894880204601
:10DD900092DF38BD002807D00449814204D80449E5
:10DDA000814201D901207047002070475021002096
:10DDB00060210020044A0168914201D0083101E04D
:10DDC00001493839016070476832002070B50D4D47
:10DDD00004460A462846AC4208D1FF2401342146B5
:10DDE000104604F05BFEA0420AD070BDFF2CFCD8A8
:10DDF0002146104604F044FE002801D0204670BDA4
:10DE0000284670BDFFFF000070B5084C050009D022
:10DE100010342168002907D0086820604968284626
:10DE20008847F6E70834F4E770BD0000B030002002
:10DE3000F8B52348416800293ED00E6821494C6856
:10DE400087688078E11B0D022D0AED1C002814D193
:10DE500001201D4A000450601B4A403A50601B4993
:10DE6000400008601A4908601A49012008602F2004
:10DE700002F096FA124901208870B54200D2354668
:10DE8000E81900020F4B000A403318600D4A516830
:10DE9000001B091B0902090A0002C91C000A814271
:10DEA00009D9506818602F2002F07AFA012007493A
:10DEB000400480390860F8BD05F0B4FCF8BD0000EE
:10DEC000D8200020001501404013014080E200E00E
:10DED00000E100E000100140F8B506461088144645
:10DEE0008446801D0D46984201D90C20F8BD328829
:10DEF0000720062AFAD31927FF01184BBA4201D985
:10DF00009A42F3D171880629F0D3B94201D99942D6
:10DF1000ECD19A4203D0994201D08A42E6D8052139
:10DF20006046295420881221401C80B22080295448
:10DF30002088401C80B220804119308806F040FFC4
:10DF40002188401880B220804119708806F038FF7F
:10DF50002188401820800020F8BD0000FFFF00004D
:10DF600010B502A20549FEF7F1F910BD2E2E5C2E68
:10DF70002E5C2E2E5C6D61696E2E6300D205000052
:10DF8000F8B5164801F08CFC144D00260C3D144CDD
:10DF9000002807D0616900291CD001206A46107052
:10DFA000684616E02878002805D06169002911D05C
:10DFB000684606700DE0687800280DD0A168094811
:10DFC00000220068FEF7B6FC002803D0A1690029F2
:10DFD00000D088472E70F8BD6168F0E7542000201B
:10DFE00080290020C8530200064A10B51146A4310A
:10DFF000032003F067F903490322A0310248FFF729
:10E00000B7FD10BDB4520200B424002010B5014683
:10E010000148FFF783FC10BD782700207FB50C4630
:10E02000002802D0012004B070BD2079002600280D
:10E0300006D01B4D01281CD0022828D00F20F2E763
:10E0400002960396E0680190694601A805F0EEFA91
:10E0500000280AD002988188E180008820816946E2
:10E060000988029805F05CFB00E00A20022121717A
:10E07000D9E70C4B6A460021A01D05F095FA00284F
:10E0800007D0084908398E60CE600A28CBD12846CF
:10E09000C9E704488188019805F042FBF5E70000D4
:10E0A0001D1D00001C210020F7B507460920800136
:10E0B0003E18B07E64214843C519747E1220604327
:10E0C00041192A790A31601C82B0904226D101ABF5
:10E0D0000022384601F0F2FB002822D010E0401E5A
:10E0E000A04201D1002003E01220604340191C30FF
:10E0F0000246009001AB384601F0E0FB002807D053
:10E1000003980021017001A9049893DF05B0F0BDC8
:10E11000707E0099401C641C7076E4B22879A0429D
:10E12000DDD80398012101700020EFE710B5094AFE
:10E1300009A1032003F0C6F80B481321C08876DF3D
:10E14000082805D0002803D008A20C49FEF7FEF8E5
:10E1500010BD0000BC5202004150503A494E464F9B
:10E160003A25730D0A000000E81F00202E2E5C2EB9
:10E170002E5C2E2E5C6D61696E2E63002A020000FB
:10E18000F7B50921890141181446897E642251435B
:10E190000F18384605F020FB060033D01A4A906865
:10E1A00006282FD2214614466C225043174D642274
:10E1B00040194180001D3946FCF7D6FF0198002721
:10E1C000002804D0A0686C2148432F5404E0A068C4
:10E1D00002216C2250432954A0686C214143491903
:10E1E000401C8E66A060E16888420BD1002605E0E5
:10E1F0006C2070434019816E8847761CE068864227
:10E20000F6D3A760FEBD00005C200020E8290020B6
:10E2100030B50D460921890141181446897E6422D2
:10E2200051439BB0081805F0D7FA030005D06846A3
:10E23000448001210170019598471BB030BD00005A
:10E2400010B505480078002802D000F049F810BD4C
:10E2500000F004F810BD0000E81F002010B5134CBA
:10E260002078002820D1607800281DD110A103203B
:10E2700003F022F8134804F081FE0120607001468B
:10E28000092002F0DDFE00210A2002F0D9FE0F482D
:10E2900000220D498068FEF74DFB002804D0FF21C5
:10E2A0000BA20F31FEF752F810BD0000E81F00204E
:10E2B0004150503A494E464F3A6C6F636B2E0D0AEF
:10E2C00000000000FB040000CD0C0000945202008E
:10E2D0002E2E5C2E2E5C2E2E5C6D61696E2E6300E0
:10E2E00010B5134C2078002820D0607800281DD16C
:10E2F00010A1032002F0E0FF134804F03FFE0120CC
:10E3000060700021092002F09BFE01210A2002F02A
:10E3100097FE0F4800220D498068FEF70BFB00288E
:10E3200004D0FF210BA22431FEF710F810BD00002D
:10E33000E81F00204150503A494E464F3A756E6CE6
:10E340006F636B2E0D0A000077070000CD0C0000F4
:10E35000945202002E2E5C2E2E5C2E2E5C6D616976
:10E360006E2E630010B50E4900230A784C78A24245
:10E3700012D0521CD2B20A70022A00D10B700A7855
:10E38000074B920018339A580260886810180002F0
:10E39000000A8860012010BD0360002010BD00004D
:10E3A000D82000203EB5094D383538CD0093029570
:10E3B00001946B46588099809A710549002209782A
:10E3C000FFF752F9684600F08DF83EBDC8540200D0
:10E3D000B420002010B5047800222300FDF764FA71
:10E3E000070605070D1D262C06000A7010BD012228
:10E3F0000A7002898A81828814E002220A700289E6
:10E400008A818288CA81C2688A60007C062802D01C
:10E410000020087410BD0120FBE703220A70C288A7
:10E420008A810289CA81C068886010BD04230B708C
:10E43000C0888881CA8110BD0520087010BD000009
:10E4400070B5064D06460024A0002958002901D0C9
:10E4500030468847641C082CF6D370BD98310020E4
:10E460000EB5002910D011290ED000220092029280
:10E470006A46508001910D2907D0862907D00920CE
:10E480001070104600F03CF80EBD0B20F8E70A2093
:10E49000F6E70000014909680847000074200020E1
:10E4A00070B5054D06460024A0002958304688471F
:10E4B000641C022CF8D370BDA8540200F8B50746BE
:10E4C0000024064E064D04E0A00031583846884727
:10E4D000641CE8788442F7DBF8BD0000503000206F
:10E4E000A420002070B5054D06460024A000295840
:10E4F00030468847641C022CF8D370BDC854020013
:10E5000001490968084700000C5502007FB5044620
:10E51000406800280BD00020039020780026414D51
:10E520000300FDF7C1F9066D0606304E7B6D012034
:10E53000F2E7A08900F0ECF9002804D1E08905F0A9
:10E5400011F900285CD0A08900F0DDF90146684689
:10E550004180E08905F000F90146684601712078A4
:10E560000128606807D0002809D004206946087097
:10E570006068039020E00028F8D00320F6E701202F
:10E58000F4E708463AE0A08900F0C2F9002804D177
:10E59000E08905F0E7F8002832D0A08900F0B3F94F
:10E5A00069464880E08905F0D7F8694608716068D7
:10E5B000002804D005200870A0680290E1E702203E
:10E5C000F9E7A08900F0A4F9002819D0E089002813
:10E5D00016D1A08900F097F969464880E08905F0D6
:10E5E000BBF8FF2069460871606800280FD007203B
:10E5F00008706E70AE7003F017FF684603F0D0FD30
:10E600006878002802D06E7003F00EFF7FBD0621EF
:10E6100068460170408803F095FFEAE708206946E4
:10E620000870AEE79020002000B5104987B0097847
:10E63000890702D4022007B000BD0D49884201D1EC
:10E640000420F8E7052269460A7001220A71C88091
:10E6500000221146684603F0EBF9002803D004F0CD
:10E660007FFF0020E7E70820E5E7000014210020F5
:10E67000FFFF000000B50F4887B00078800702D484
:10E68000022007B000BD062069460870002211462E
:10E69000684603F0CDF9002809D007480178002921
:10E6A00001D00121017304F05BFF0020E9E708209D
:10E6B000E7E70000142100209832002010B58CB04C
:10E6C00014216846FCF769FD1D480078810703D5D1
:10E6D0006846FFF7B5FE30E0C0072ED1012000F0FC
:10E6E0003DF900F0B5F901246846047503F032FAEB
:10E6F0000300FDF7D9F80C071107111B190A191BA4
:10E700001317131B0B200CB010BD022000F026F9CC
:10E71000012000F009F9DBE7002000E00320694652
:10E72000087603E00220FAE76846047600221146E4
:10E7300005A803F07DF904F013FF0020E3E70000D3
:10E740001421002038B5040014D0694604F06EFF8F
:10E75000002813D0684600880101094809188889F3
:10E76000002809D0A27A002A06D0401E8881002005
:10E77000A07238BD052038BD062038BD0A2038BD3E
:10E78000783200201FB501A9684604F00DFF04B0DF
:10E7900010BD07B513460A466946002004F004FF81
:10E7A0000EBD07B513460A460021684604F0FCFE7C
:10E7B0000EBD002805D0002903D0006808600020A5
:10E7C000704705207047000038B50D46040017D08B
:10E7D000002D15D0694604F029FF002812D06846A4
:10E7E000008861680201084812189089401C9081D5
:10E7F000296060680C3068600120A072002038BD7C
:10E80000052038BD0A2038BD7832002010B5002818
:10E8100004D00323002206F007FC10BD052010BD24
:10E8200010B50223002206F0FFFB10BD10B5002A30
:10E8300003D0022306F0F8FB10BD052010BD000038
:10E8400010B5064A5178082906D08B00044C491CA3
:10E85000E0505170002010BD0C2010BD142100208C
:10E860009831002038B504460A480D4600788007E4
:10E8700001D4022038BD002C0AD06946284606F093
:10E88000E3FC0028F6D1694609882180658038BDFF
:10E89000052038BD1421002010B504460E4800782C
:10E8A000800701D4022010BD002C10D0218802293D
:10E8B0000FD80A4A0801801842896088121AD21EAD
:10E8C00007D406F0B7FC00202080608010BD052032
:10E8D00010BD042010BD000014210020783200205B
:10E8E000826883881A4003689A5C0A708168491CB0
:10E8F00081607047C26883881A4003689954C16870
:10E90000491CC160704703218903401A80B27047D7
:10E9100003218903401A0349884201D80120704726
:10E9200000207047FE3F000002490A7882430A70C7
:10E93000704700001421002010B504460078182804
:10E9400002D1FEF75BFE207010BD10B504460078C2
:10E95000182802D1FEF752FE207010BD02490A7835
:10E9600002430A70704700001421002070B506466B
:10E97000104600221546862906D0112902D000290A
:10E9800003D070BD012500E001220E4C00280FD0FD
:10E9900061793046FEF768FE2A4621793046FEF757
:10E9A00063FE002261783046FEF75EFE002204E03E
:10E9B00061783046FEF758FE2A4621783046FEF749
:10E9C00053FE70BDB8200020F8B506461C48154619
:10E9D00000781F460C46C0070AD03046FFF7DAF928
:10E9E000002807D0002C07D0A00507D00620F8BDCE
:10E9F0000120F8BD0220F8BD0320F8BD3068A04218
:10EA000004D8A80271680019884201D90520F8BD10
:10EA1000002D11D0684604F0F3FC00280ED00098B9
:10EA20000221476006600172A101090C8181058203
:10EA300004F0A4FD0020F8BD0420F8BD0720F8BDB7
:10EA40002C21002010B5084604F0F6FC10BD000093
:10EA5000F0B52648264C001B030926481946406994
:10EA6000421C03D10120000740698002224A12782B
:10EA70009646D2070CD00020F0BD1D4C15012C1974
:10EA80002568002D03D06468002C00D0491E521C5C
:10EA90009A42F2D3002420E0E2B2002594462A46AE
:10EAA0000FE0134E1701BE193768002F02D07768A8
:10EAB000002F05D1767BAE4202D93546D6B2B44698
:10EAC000521C9A42EDD362461501094AAA185060B9
:10EAD000157BAD02401B641C10608C42DCD30648E1
:10EAE0007146012211430170C5E70000602100203A
:10EAF00050210020001000102C210020002804D0FC
:10EB00000349496E016000207047032070470000F0
:10EB1000A8320020F8B507461E481E460078154664
:10EB20000C46C0070ED03846FFF734F900280BD04A
:10EB3000002D0BD0002C09D028462043800707D099
:10EB40000620F8BD0120F8BD0220F8BD0320F8BD65
:10EB50003868A04204D8B10078680919884201D207
:10EB60000520F8BD002E11D0684604F049FC0028AD
:10EB70000ED0009806990760416001210172C560BE
:10EB80000461868204F0FAFC0020F8BD0420F8BD80
:10EB90000720F8BD2C21002070B5174B0446186ED5
:10EBA000182148431549C0180A78950715D5022C35
:10EBB00002D0032C1CD102E002F066FE18E04A7875
:10EBC000521CD2B24A70032A12D900224A7008217C
:10EBD00005F068F804F0FEFB0AE0500708D5FB20BA
:10EBE00002400A70586E002802D0022002430A70C8
:10EBF00004F080FC70BD0000A83200202C21002011
:10EC00000EB5254A25A1032002F05CFB69461120C0
:10EC1000087226A1032002F04FFB0B222DA102A8AF
:10EC20007CDF002803D02EA23149FDF78FFB31A1F4
:10EC3000032002F041FB0920800178DF002804D086
:10EC40002B4927A2091DFDF781FB0021FF209130F0
:10EC500000916A4601911080430053809180D080DA
:10EC60002EA1032002F028FB68467ADF002804D09A
:10EC70001F491BA20F31FDF769FB30A1032002F0F1
:10EC80001BFB0720C04377DF002804D0184914A2DB
:10EC90001331FDF75BFB0EBD215302004150503A8A
:10ECA000494E464F3A25730D0A0000004150503A34
:10ECB000494E464F3A73645F626C655F6761705F8F
:10ECC0006465766963655F6E616D655F7365740D1C
:10ECD0000A0000004E6F726469635F7465737400AC
:10ECE0002E2E5C2E2E5C2E2E5C6D61696E2E6300C6
:10ECF000030400004150503A494E464F3A73645F56
:10ED0000626C655F6761705F617070656172616E92
:10ED100063655F7365740D0A000000004150503A4E
:10ED2000494E464F3A73645F626C655F6761705F1E
:10ED3000707063705F7365740D0A00004150503A43
:10ED4000494E464F3A73645F626C655F6761705FFE
:10ED500074785F706F7765725F7365740D0A000079
:10ED600070B5002801D0012070BD164C0025207B15
:10ED7000002801D0257301E000F09CF82078030002
:10ED8000FCF792FD081E05080B0E1E111A1E00F05E
:10ED90001BF870BD00F07EF870BD00F061F870BD2A
:10EDA00000F038F870BD608806490001203940182D
:10EDB000406802F0AFFE70BD656002F0B9FE70BD44
:10EDC0000F2070BD9832002070B5104900208B1CB8
:10EDD0000D460246203D0C18A67A002E08D0A272DD
:10EDE00004016419A689002E02D1A47B012C08D04D
:10EDF000401C80B20228EED30A704A8004484A6060
:10EE000070BD188000F046F870BD000098320020F8
:10EE10001D1D000010B50F4C6088010120462038F0
:10EE20000818818900290BD0052020700A4802218A
:10EE300081800168002301220848FFF7C5FD10BD4D
:10EE40004168002301220548FFF7BEFD042121701F
:10EE500010BD000098320020242100205021002005
:10EE600038B50A4908480B688988426889005918EA
:10EE70005388032404700020DB1C00909BB20448DC
:10EE8000FFF748FE38BD0000983200202421002002
:10EE90005021002010B506494888091D04F016FCD1
:10EEA000002802D0FFF7DCFF10BDFFF7B3FF10BD55
:10EEB00098320020F0B51D481D490778024601250B
:10EEC00002268C88203A3B00FCF7EEFC0805171759
:10EED0001A212C2C16170189491C0181002141801F
:10EEE00001730B01D35C002B08D000234418491C8C
:10EEF00089B2A3720229F4D30570F0BD0123F5E7AE
:10EF000042685288D21CA2188A800670F0BD4588DB
:10EF10000B682D01AA1855680D60536014818E800E
:10EF2000062100E007210170F0BD000098320020AA
:10EF300024210020F0B504460088394D8DB05028BA
:10EF40001FD0522802D0542828D103E0A08800F016
:10EF5000D9FF23E0062168460170A08800F082FBFB
:10EF6000014668464180A2888280084600F02CF95C
:10EF7000A0880022E978FEF777FB6846FFF78AFA57
:10EF80000CE0207B012809D1A07A012806D1208934
:10EF90002449884202D1A08800F0F0FFA878FEF74B
:10EFA00045FB002819D008A8FEF756FA142208A934
:10EFB00003A8FCF7D9F8002403AE0BE06000871922
:10EFC000B888A978FEF73EFB002802D0B88800F088
:10EFD00099FF641C0398A042F0D86878FEF726FBDE
:10EFE000002819D008A8FEF737FA142208A903A8A8
:10EFF000FCF7BAF8002403AE0BE060008719B8886C
:10F000006978FEF71FFB002802D0B88800F0B6FF31
:10F01000641C0398A042F0D804F07EFE0DB0F0BD51
:10F020006C200020022900003EB504464088694655
:10F0300048802078002814D001281DD002280FD144
:10F04000207900280CD0608800F040FA0E498842F0
:10F0500006D00E490122C978FEF706FB04F05CFEDB
:10F060003EBD002008700846FFF714FA608800F0E3
:10F070002DFA00F047FF3EBD012168460170A188CE
:10F080008180FFF707FA3EBDFFFF00006C200020E3
:10F0900010B50446007801280DD1608800F032FFD9
:10F0A000608800F057F9002805D0034960880122E4
:10F0B000C978FEF7D9FA10BD6C20002010B5104CAD
:10F0C00000202070FEF79AFA6070FEF797FAA070A1
:10F0D000FEF794FAE070FEF791FA20716178182932
:10F0E0000BD0A178182908D0E178182905D0182864
:10F0F00003D001202070002010BD032010BD0000AF
:10F100006C200020F0B585B000F076F86846FEF778
:10F11000A3F900246D460C4F0EE060004619B0883C
:10F1200000F0A0FAB84205D10849B0880122C97898
:10F13000FEF79AFA641CA4B20098A042EDD804F03D
:10F14000EBFD05B0F0BD0000FFFF00006C200020CB
:10F1500010B50178072902D1408800F00FFF10BDDB
:10F1600010B504460A4841782046FEF76BFA00289D
:10F170000CD0084800210C224A4312185288A2429F
:10F1800001D1C8B210BD491C0829F4D3FF2010BD1D
:10F1900084200020702C002070B5094D094E0024F9
:10F1A0000C206043401940887178FEF74BFA002824
:10F1B00004D0641C082CF3D3FF2070BDE0B270BDF6
:10F1C000702C0020842000201CB5054A9168D2686C
:10F1D000019200910022694602F0AAFE1CBD0000C7
:10F1E0009454020003480021C94381800121017029
:10F1F000002070477820002010B5044802F0CCFDB4
:10F200000349888004F0B4FD10BD0000FFFF00003A
:10F2100078200020F1B582B0029800F023FA002493
:10F220001649032501272646884209D06A46082147
:10F2300002F054FE002803D1019886880568841DD9
:10F240002B46324621460298A9DF042804D008281C
:10F2500004D00B2807D002E0112000E00020002F8E
:10F2600000D10B20FEBD0027A80701D50125E7E747
:10F270003443F6D0002426460325E1E7FFFF0000D3
:10F28000F1B582B0029800F0EDF907461B488742BD
:10F2900001D11B48FEBD01252A466D1C0026ADB2DA
:10F2A0006B460821384602F049FE040002D0072CC4
:10F2B00021D021E0019903230B600A1D891D0298CA
:10F2C000AADF040004D00C2C08D0052C08D008E0DC
:10F2D0000821384602F0CCFE04460DE0012600E08D
:10F2E00000240821384602F0ADFE002800D0032497
:10F2F000002ED1D100E00C242046FEBDFFFF00000F
:10F30000023000001FB504460078012815D120798D
:10F31000012812D1608802AA012102F0DFFD002835
:10F320000BD1022168460170618841800398017801
:10F330006846017105490968884704480449083846
:10F340008088884201D004F013FD1FBD802000207A
:10F35000FFFF00001CB500F085F96A46012102F0AC
:10F36000BDFD002801D000201CBD019800781CBD07
:10F37000F8B5074E074C084D0746324661883846B7
:10F38000A7DFA84203D16088401C6080F5E7F8BD84
:10F39000FFFF000078200020033000008188054A2C
:10F3A000914204D00088002801D00120704700203D
:10F3B00070470000FFFF00003EB5044600780D4690
:10F3C000022815D10322611C6846FBF7CDFE0322FB
:10F3D000211D02A8FBF7C8FE01AA02A92846FCF7D6
:10F3E000A7FE032201A96846FBF7EAFE002801D028
:10F3F00000203EBD01203EBD10B50C46FFF7B0FE1B
:10F40000FF280AD00C214843054907224118091D4D
:10F410002046FBF7A9FE002010BD052010BD00000E
:10F42000702C002070B5018890B0102949D1011DC1
:10F430002C2202A8FBF798FE6846234E007B344638
:10F4400002AD03282AD002F01BFF6846007B00288B
:10F450000ED001280CD0022820D118E00E99281DCA
:10F460001131FCF705FD002802D06846048815E03C
:10F470000DAA6946072002F0D9FE0028EED10DE062
:10F480000E99281D491CFFF797FF0028EDD10DAA02
:10F490006946072002F0CAFE0028F1D168460089BB
:10F4A000291D00F00DFFB4420BD0684600892146AB
:10F4B00000F086F868460189418001210170FEF75D
:10F4C000EFFF10B070BD0000FFFF0000084A0021F0
:10F4D0000C234B43D35A834204D10C204143881858
:10F4E00040887047491C0829F2D302487047000041
:10F4F000702C0020FFFF000010B50E4C182060702B
:10F500000D4A0E4900200C2343435B18401C5A80CF
:10F510000828F8D3FEF772F86070182804D0054860
:10F52000C01C71DF002801D0032010BD0120207015
:10F53000002010BD84200020FFFF0000702C002060
:10F5400070B504460D46401C00F052FA002810D059
:10F550001022691C601CFBF733FE00280AD000262D
:10F560002946204611311130FCF782FC0146304615
:10F57000084370BD0126F3E70188002903D1421832
:10F580009278002A01D001207047491C0829F6D33F
:10F590000020704710B50C460346FFF7EDFF00282A
:10F5A0000BD018882188884206D10822A11C981CFB
:10F5B000FBF706FE002801D0002010BD012010BD81
:10F5C00010B503F01BF810BD10B50446007888B0E4
:10F5D000002826D12079072823D1608801AA072195
:10F5E00002F07CFC00281CD102F04AFE1BE06946B8
:10F5F00060880988884216D004990298FFF7A0FF16
:10F60000002810D06088FFF761FF01466846C1827C
:10F6100000210175618801830188418305A8FEF7F7
:10F620003FFF08B010BD03AA6946072002F0FEFDA7
:10F630000028DCD1F5E7000070B50446FFF746FF6F
:10F640000546204602F04FFC054904468D4204D091
:10F65000002C02D1284602F0D1FF204670BD0000E8
:10F66000FFFF000010B5FFF77BFDFF2804D00C2141
:10F6700048430249085A10BD014810BD702C0020B3
:10F68000FFFF00003EB5044602F0FAFD10E00199CC
:10F6900020464631FFF77EFF002806D1019920461B
:10F6A0002A31FFF777FF002802D0684600893EBD67
:10F6B0006A4602A9072002F0B9FD0028E7D10148F7
:10F6C0003EBD0000FFFF0000F8B50F46002804D043
:10F6D0000120FFF729F90120F8BD397900290AD066
:10F6E0000026254D01290BD0244C022920681FD06B
:10F6F00003293BD125E002F01BFA0121397133E0E7
:10F7000000200101695C02290BD0401C80B2022854
:10F71000F7D30220FFF722F90120FFF705F9184877
:10F72000F8BD04016019406802F0F4F92E551BE0A1
:10F730000146002301221348FFF746F90221A18068
:10F7400011E002F0E7F90C492368203149880A01E9
:10F75000094951184D6825604B60A3880B8102212F
:10F76000A18005498E543E710028D9D00120FFF7B1
:10F77000DBF80E20F8BD00007832002024210020A4
:10F780001D1D000050210020F8B5204C20780028D5
:10F790003AD0E068002600280ED0002560780028C6
:10F7A00032D1684652DF052808D0002808D0184A10
:10F7B000A521FCF7CBFD0BE00125EFE7012607E0D3
:10F7C000009800F0ABFE2169002901D0009888471D
:10F7D000002D15D16078002816D160886946088010
:10F7E000A06861DF052806D0002806D0084ACA2193
:10F7F000FCF7ACFD04E0012502E0E168A068884761
:10F80000002ECBD0002DE3D0F8BD00003C2100201D
:10F8100068550200F7B50025164604462F4616E047
:10F82000A800FF304130012109042258A940002AD4
:10F830000BD003221202A21852680A4205D02750A8
:10F84000019A01991268496890476D1CEDB2B54262
:10F85000E6D3FEBD0121814003484068014201D04A
:10F860000120704700207047D020002001218140F6
:10F8700003484078014201D00120704700207047C2
:10F88000D0200020014610B501208840FDF7CDF9B9
:10F8900010BD01218140880700D001207047000081
:10F8A000418805480288914204D34088814201D8AA
:10F8B00001207047002070474C20002030B5098996
:10F8C000002A05D0D088491C814213D1002030BDC8
:10F8D000092292018218947E64256C43241824899D
:10F8E000A142F3D0491C1980917E6422514308182B
:10F8F000008902E01980D088401E5880012030BD68
:10F900000B48008CC0B2012810D10948808C000738
:10F91000000F0BD10648806AF0210840402805D12D
:10F920000348C06A084201D1012070470020FCE76B
:10F93000C00F00F01748008CC0B2012827D115482D
:10F94000808C0007000F22D11248806AF021084203
:10F9500005D11048C06A084201D1012070470D4806
:10F96000806AF0210840102805D10A48C06A084280
:10F9700001D10120F2E70748806AF02108403028D1
:10F9800005D10448C06A084201D10120E6E7002001
:10F99000E4E70000C00F00F01148008CC0B201285D
:10F9A0001CD10F48808C0007000F17D10C48806ACB
:10F9B000F0210840A02805D10948C06A084201D1B9
:10F9C000012070470648806AF0210840D02805D100
:10F9D0000348C06A084201D10120F2E70020F0E7A5
:10F9E000C00F00F001218140880400D00120704741
:10F9F0000021425C002A01D001207047491C1029D7
:10FA0000F7D300207047800701D000207047012005
:10FA10007047000010B50249085C01F0D9FA10BD2A
:10FA20009452020010B50249085C01F0E9FA10BDD9
:10FA300094520200FFB5244D81B0287A0E461F462D
:10FA4000084304D0039A002E04D0002104E00520CE
:10FA500005B0F0BD1C491031019804F055FC044676
:10FA6000014600220198FEF781FF002F03D02146B6
:10FA70000198FEF7F5FC112C0FD006DC002C0AD003
:10FA8000082C08D00D2C05D105E0862C11D00F488C
:10FA9000201800D003242046DAE73246E97801989E
:10FAA000FDF7E2FDA978039A0198FDF7DDFD00243A
:10FAB000F1E73246E9780198FDF7D6FDA978039A77
:10FAC0000198FDF7D1FDE6E7B8200020FECFFFFF4B
:10FAD000FEB517460C00064604D02078C00704D0B7
:10FAE000012003E000217EDFFEBD0220694608718F
:10FAF0003046FFF7B7FD17490546884208D001A8F0
:10FB000000902B463A462146304600F025F806E0A4
:10FB100020782146C007304603D000F081F8044623
:10FB20000BE07EDF044600200090002C08D000226D
:10FB300001232946304604F07FF8002C02D006E06D
:10FB40000122F5E768460179304604F09BF820462B
:10FB5000FEBD0000FFFF0000FFB585B000252E466A
:10FB600001AA07210E9F089802F0B8F9040009D1F4
:10FB7000029D0298183540300079C607F60F01D073
:10FB8000029D34350798204312D1002D10D0002E4D
:10FB900005D128461230FFF7EFFC002808D029468F
:10FBA0002A461231059885DF04460020387023E08C
:10FBB000002C01D0052C1FD106980078C0070DD06D
:10FBC00003AB01220721089802F0B8F904000AD11A
:10FBD0000721089802F0B0FA040004D106990598AC
:10FBE0007EDF040008D00721089802F02BFA0028D5
:10FBF00002D0052800D00324002000903878002887
:10FC000001D0012300E00023002C07D00022089936
:10FC1000059804F011F8204609B0F0BD0122F6E77E
:10FC2000FEB506460F4602F055F9054617488542CF
:10FC300027D001AB01220721284602F07FF90400FA
:10FC40000AD10721284602F077FA040004D1394688
:10FC500030467EDF040008D00721284602F0F2F982
:10FC6000002802D0052800D0032401200090002C99
:10FC70000AD0002201232946304603F0DDFF20464A
:10FC8000FEBD03240020F1E70122F3E7FFFF00009F
:10FC9000F7B5114D0E46174629780098FDF7D2FCAE
:10FCA000002812D00098FFF7DDFC04460B48844280
:10FCB0000BD069780098FDF7C5FC002806D03B46BC
:10FCC00032462146009801F0BDFFFEBD3A4631465E
:10FCD0000098FEF767FBFEBDB4200020FFFF000088
:10FCE000F1B586B00698FDF7A1FC002821D0684642
:10FCF000FDF7B2FB00246E4618E060008519A88865
:10FD00000699FDF79FFC00280FD00B4FA888B97803
:10FD1000FDF798FC0590A888F978FDF793FC01465B
:10FD2000A8880123059AFFF785FE641C0098A0426D
:10FD3000E3D807B0F0BD0000B8200020F0B5284C93
:10FD40002146103948688B68227886469C46CF78D1
:10FD5000667836E0182353436168521CC918A378AB
:10FD6000D2B2934200D100220B78022B02D0032B97
:10FD700027D123E003464D68194603E0A94204D089
:10FD80000B46C96900291CD0F8E7002919D08B421D
:10FD900008D1C069002805D1124F0125BD6000259A
:10FDA000AC4601270D68C969D961002909D00B68E3
:10FDB0005B190B6005E00174C06900E000210028B8
:10FDC000F9D19642C6D10649624610398A60486028
:10FDD000CF70704501D00120F0BD0020F0BD0000C3
:10FDE000E820002000100140F8B52C4E0446706851
:10FDF0000025009041E0002C02D02046E46920E07C
:10FE0000264818231030017842684B43491CC9B278
:10FE1000D21801708378994200D10570117850682A
:10FE200001292CD1017C002929D191684160D16838
:10FE300081601169C16051698161F178002900D048
:10FE400045604368B268164F991A0902090AB94217
:10FE500002D28268891806E0D11A09028268090A6A
:10FE60008A4202D9511A016000E005604560012113
:10FE700085600174C56104F07DFC002CBBD107488E
:10FE80001030017840788142BAD17168009881427F
:10FE900001D00120F8BD0020F8BD0000D8200020CE
:10FEA000FFFF7F000EB50F4800900F480021019022
:10FEB000029168460172481C0107090F203168460B
:10FEC0004172012001462031684681726946074827
:10FED000FDF7A4FD002803D005A20949FCF736FA76
:10FEE0000EBD000079180200DD3E02004C27002004
:10FEF0002E2E5C2E2E5C2E2E5C6D61696E2E6300A4
:10FF0000E5040000FEB504461948002684422DD0C1
:10FF10002046FFF77FF9050012D00B2D14D0112DCC
:10FF200010D0144828181BD00921684601702046BB
:10FF3000FFF798FB014668464180848002950DE0FA
:10FF4000022102E001260BE00321684601702046F1
:10FF5000FFF788FB0146684641808480FEF79AFAE5
:10FF60000548324681782046FDF77EFBFEBD000045
:10FF7000FFFF0000FECFFFFF6C200020FEB504460F
:10FF80000026FFF77DF90546112818D004DC002D66
:10FF900013D00C2D05D114E0862D25D01348281838
:10FFA0001BD00921684601702046FFF75BFB014624
:10FFB00068464180848002950DE0012102E001261F
:10FFC0000BE007216846017084802046FFF74AFB5A
:10FFD000014668464180FEF75DFA054832464178A1
:10FFE0002046FDF741FBFEBD0821EBE7FECFFFFFFA
:10FFF0006C200020F8B5054600780C46002620420B
:020000040002F8
:1000000010D10020694608706846FCF79FFD2878EB
:100010000146214202D1204328700126684600781B
:10002000FCF7B2FD3046F8BD8AB0002001F068F957
:10003000002804D003214BA24902FCF787F94D4D5B
:100040000024285D00F09FFF641C022CF9D30025DA
:1000500000242046FFF7DEFC641C022CF9D36D1C43
:10006000022DF5D303210D2000F07BFF03210E208C
:1000700000F077FF03210C2000F073FF092000F04F
:1000800082FF0A2000F07FFF0020FFF7CBFC04F086
:100090003FFCFBF769F93749182234316846FBF712
:1000A00063F8FF2101313448069040180791099107
:1000B00008900323314A06A96846FCF7CFFC0028C4
:1000C00004D0A32127A28900FCF740F9FDF788FDA1
:1000D000002002F0A7FAFEF793FD264A28A19D32E0
:1000E000032001F0EFF82A48FDF7F8FA002803D0C2
:1000F0001CA22849FCF72AF903F0FEFE1C216846E1
:10010000FBF74BF80521C90301910F2109040020D9
:1001100002910090032269460A73C88108741E4840
:1001200005901E4806906846FDF724F9002804D083
:10013000BD210CA2C900FCF709F9FBF7A9FF0020BB
:10014000FFF768FC16A1032001F0B6F8FBF7E2FF09
:10015000BF24E40048DF0028FCD002A22146FCF7BF
:10016000F5F8F7E72E2E5C2E2E5C2E2E5C6D616965
:100170006E2E6300945202006C2200202D4B020070
:100180004150503A494E464F3A25730D0A0000003F
:100190000DE001006A040000E116020061DF0100C9
:1001A0004150503A494E464F3A496E697469616C04
:1001B000697A65640D0A000070B5144682880546A8
:1001C0000E46921C2088911C4118994201D8FE2AA3
:1001D00001D90C2070BD521C32542088FF21401CD4
:1001E00080B2208031542088401C80B22080811948
:1001F000288804F0E5FD2188401880B22080AA8874
:10020000002A09D0A968002908D08019FAF7ACFFA4
:100210002088A98840182080002070BD072070BD6C
:10022000F8B50F46017814460546012902D16878D1
:10023000002806D02088821C9A422DD8012902D09D
:1002400006E00720F8BD69784118891C994223D837
:10025000181A801E86B2684606802188B81C0818C5
:1002600069467DDF0028EDD12878022805D169464E
:100270000988B14201D809210AE00821012805D1E5
:100280006878B04202D86A46108001E0684606806D
:1002900068460088FE2801D90C20F8BD2288401C41
:1002A000B8542088401C80B2208039542088694688
:1002B000401C20800988401820800020F8BD0000E4
:1002C000F8B5FF2405460F4600291FD0104EB54251
:1002D0001CD01048012241782846FDF7C5F9284670
:1002E000FEF73EFF0446FF2804D1FEF755FF044603
:1002F000FF280BD00C21484307490246401845808F
:100300008E52001D07223946FAF72EFF2046F8BD0F
:10031000FFFF000084200020702C002070B50B4DE2
:100320000E46A84201D1002000E0401C84B209E042
:100330002146304602F0CCFB002801D0204670BD9B
:10034000641CA4B2FF2CF3D9284670BDFFFF000047
:10035000034940180068002800D0012070470000C1
:1003600000700040024A00218018016070470000C0
:1003700000700040C20843075B0F0120895C984071
:10038000084070470121890740180068002800D004
:1003900001207047012200219207801801607047F8
:1003A00000280FD00849094A096800BF00BF00BFF4
:1003B00000BF00BF00BF00BF00BF914200D000BF20
:1003C0000138F2D170470000142000200024F4000E
:1003D000F8B5154CA27C022A17D00222A2746268DA
:1003E000A260217400216174E060104D10686860A3
:1003F000AF153846FFF7B6FF01262E6020680028AB
:1004000005D00B49012048600BE01120F8BD3846AB
:10041000FFF79EFF0028FAD0FBF7FAFC0028F6D081
:10042000A6740020F8BD00009C300020007500403C
:10043000007300400021064A41605168002902D142
:100440005060704711464A68002AFBD148607047E7
:100450009C30002070B50D4E0446B07C0D4600283F
:1004600001D0082070BDFF200130FFF77BFF002D79
:1004700006D0002C00D1064C0720217800F054F85B
:1004800001203560B074002070BD00009C30002059
:1004900020550200014901200860704700700040AB
:1004A00070B50E4C00252078002801D0852513E07A
:1004B0000021A16061602161E160094800680126B6
:1004C000304002D1032100F02FF804F0B5F80028E5
:1004D00001D1044886612670284670BDB0300020E6
:1004E00000E100E00005004038B5002069460870D2
:1004F0006846FCF72BFB084C2078002801D1FFF759
:10050000CFFFE068401CE0600120A07068460078E2
:10051000FCF73AFB38BD0000B030002010B50028D1
:1005200001D1FDF771FC10BD8207D30EFF229A4066
:100530008907090E10B5994000280BDA03071B0F35
:10054000083B9C080C4BA400E418E36993430B435D
:10055000E36107E08408094BA400E418236893438F
:100560000B432360C106C90E01208840044908607E
:100570000449086010BD000000ED00E000E400E068
:1005800080E200E000E100E070B5144D2879002819
:1005900001D0082070BD114900204039421E0B18BF
:1005A0002033401CC0B21A702028F8D30024204603
:1005B000FDF79AFB641CE4B2082CF8D30321062053
:1005C000FFF7B2FFFF207D3000F058FD0120044905
:1005D000C007486001202871002070BD0431002050
:1005E0000063004002480079002800D001207047D5
:1005F00004310020FEB5044620480D4600190026AF
:1006000020308157491C01D0082632E0A978002902
:100610001DD0012200212046FDF774FB411C14D09F
:1006200083001748297818186A780369154F3B40EA
:1006300003610369E706FF0C8907890BD207D20A19
:100640003B4311430B43036104E0042611E0012105
:10065000C94301706878012820460CD000F0C0FC26
:10066000002100910B46012201912046114600F025
:1006700047FC3046FEBD00F0CBFCF1E7C430002063
:1006800000650040FFE0ECFF10B5FDF75FFB800662
:100690000149000E401810BD0060004005490918CE
:1006A000202008568100044808180169890889003B
:1006B00001617047C43000200065004009490918F5
:1006C00020200856810008480918086903221043B1
:1006D0001F22120202430A6100BF00BF00BF08616F
:1006E00070470000C430002000650040002900D0A1
:1006F0000121084A121820201056820006481218BC
:10070000106901231B05C9079843C90A08431061F2
:1007100070470000C43000200065004010B504465A
:1007200001F0E0FF00280DD02046FDF70FFBC0B21E
:10073000FDF7DAFA2046FDF709FB074A00218000A1
:1007400080180161054800210019C943203001705B
:10075000204600F0FDFB10BD00650040C4300020C5
:10076000F1B50427164E82B00024002069460870B7
:100770006846FCF7EBF90125A5402846304204D035
:100780002046FFF767F800280CD068460078FCF791
:10079000FBF9002F04D0641CAE43E4B2002EE4D178
:1007A0003846FEBD074901204A68A0401043486012
:1007B00002980027047068460078FCF7E5F9EFE737
:1007C000FF3F0000D0200020F8B514460D0007467A
:1007D00012D0002C10D00026FFF704F900280DD00D
:1007E0003846FFF737F800280AD00648F9000818FD
:1007F000056144613046F8BD0E20F8BD0726F9E7D3
:100800000826F7E700F5014070B505460024FFF71C
:1008100039F800280FD02846FFF7E4F8002804D064
:100820002846FFF717F8002807D001200449A84000
:100830008860204670BD0724FBE70824F9E7000024
:1008400000F5014070B505460024FFF71BF80028AD
:100850000FD02846FFF7C6F8002804D02846FEF738
:10086000F9FF002807D001200449A840486020462D
:1008700070BD0724FBE70824F9E7000000F50140FC
:10088000F8B504460026FFF7ADF8002812D0012580
:100890000948A5408560002168460170FCF756F9BB
:1008A00006484168A943416068460078FCF76CF946
:1008B0003046F8BD0726FBE700F50140D0200020B8
:1008C000F8B506460D4600240846FEF7E2FF00286C
:1008D0001CD02846FEF7CAFF002815D03046FCF78A
:1008E000A4F9002812D0002168460170FCF72EF907
:1008F0000748A9000818016831430160684600787C
:10090000FCF742F92046F8BD0824FBE70724F9E785
:1009100000F80140F8B506460D4600240846FEF7EB
:10092000B8FF00281CD02846FEF7A0FF002815D0ED
:100930003046FCF77AF9002812D000216846017091
:10094000FCF704F90748A90008180168B1430160E1
:1009500068460078FCF718F92046F8BD0824FBE744
:100960000724F9E700F80140F1B50427032682B017
:1009700000240020694608706846FCF7E7F8012566
:10098000A5402846304204D02046FEF76FFF0028DD
:100990000CD068460078FCF7F7F8002F04D0641CF0
:1009A000AE43E4B2002EE4D13846FEBD0649012034
:1009B0004A78A040104348700298002704706846A7
:1009C0000078FCF7E1F8EFE7D020002070B505468D
:1009D0000024FEF75EFF00280BD02846FEF746FFF6
:1009E000002808D0054A0120E9008918086020463F
:1009F00070BD0724FBE70824F9E7000000F0014080
:100A0000F8B504460025FEF744FF002800D107256D
:100A10002046FEF72BFF002814D00B490126E000EA
:100A200040184660002168460170FCF78FF80748BF
:100A3000A6404178B143417068460078FCF7A4F8BD
:100A40002846F8BD0825FBE700F00140D020002033
:100A500004480178002901D08520704701210170E8
:100A600000207047D02000201522006889009201E4
:100A7000891840587047026888004030C0B210188A
:100A8000704700680121C160704770B501242404DB
:100A90008C40032605683602AD19002B01D06C602E
:100AA00000E0AC6000688900081815218901401831
:100AB000026070BD02688800FF30413080B21018BB
:100AC0007047026801200004884003210902511880
